{
  "_format": "hh3-artifact-1",
  "contractName": "ElectionFaucet",
  "sourceName": "contracts/ElectionFaucet.sol",
  "abi": [
    {
      "inputs": [
        {
          "internalType": "address",
          "name": "_trumpToken",
          "type": "address"
        },
        {
          "internalType": "address",
          "name": "_bidenToken",
          "type": "address"
        },
        {
          "internalType": "uint256",
          "name": "_rewardAmount",
          "type": "uint256"
        },
        {
          "internalType": "address",
          "name": "initialOwner",
          "type": "address"
        }
      ],
      "stateMutability": "nonpayable",
      "type": "constructor"
    },
    {
      "inputs": [],
      "name": "AlreadyVoted",
      "type": "error"
    },
    {
      "inputs": [],
      "name": "FaucetEmpty",
      "type": "error"
    },
    {
      "inputs": [],
      "name": "InvalidCandidate",
      "type": "error"
    },
    {
      "inputs": [
        {
          "internalType": "address",
          "name": "owner",
          "type": "address"
        }
      ],
      "name": "OwnableInvalidOwner",
      "type": "error"
    },
    {
      "inputs": [
        {
          "internalType": "address",
          "name": "account",
          "type": "address"
        }
      ],
      "name": "OwnableUnauthorizedAccount",
      "type": "error"
    },
    {
      "inputs": [],
      "name": "TransferFailed",
      "type": "error"
    },
    {
      "anonymous": false,
      "inputs": [
        {
          "indexed": true,
          "internalType": "enum ElectionFaucet.Candidate",
          "name": "candidate",
          "type": "uint8"
        },
        {
          "indexed": false,
          "internalType": "uint256",
          "name": "amount",
          "type": "uint256"
        }
      ],
      "name": "CandidateFunded",
      "type": "event"
    },
    {
      "anonymous": false,
      "inputs": [
        {
          "indexed": true,
          "internalType": "enum ElectionFaucet.Candidate",
          "name": "candidate",
          "type": "uint8"
        },
        {
          "indexed": true,
          "internalType": "address",
          "name": "to",
          "type": "address"
        },
        {
          "indexed": false,
          "internalType": "uint256",
          "name": "amount",
          "type": "uint256"
        }
      ],
      "name": "EmergencyWithdraw",
      "type": "event"
    },
    {
      "anonymous": false,
      "inputs": [
        {
          "indexed": true,
          "internalType": "address",
          "name": "previousOwner",
          "type": "address"
        },
        {
          "indexed": true,
          "internalType": "address",
          "name": "newOwner",
          "type": "address"
        }
      ],
      "name": "OwnershipTransferred",
      "type": "event"
    },
    {
      "anonymous": false,
      "inputs": [
        {
          "indexed": false,
          "internalType": "uint256",
          "name": "oldAmount",
          "type": "uint256"
        },
        {
          "indexed": false,
          "internalType": "uint256",
          "name": "newAmount",
          "type": "uint256"
        }
      ],
      "name": "RewardAmountUpdated",
      "type": "event"
    },
    {
      "anonymous": false,
      "inputs": [
        {
          "indexed": true,
          "internalType": "address",
          "name": "voter",
          "type": "address"
        },
        {
          "indexed": true,
          "internalType": "enum ElectionFaucet.Candidate",
          "name": "candidate",
          "type": "uint8"
        },
        {
          "indexed": false,
          "internalType": "uint256",
          "name": "rewardAmount",
          "type": "uint256"
        }
      ],
      "name": "VotedAndClaimed",
      "type": "event"
    },
    {
      "inputs": [],
      "name": "bidenToken",
      "outputs": [
        {
          "internalType": "contract IERC20",
          "name": "",
          "type": "address"
        }
      ],
      "stateMutability": "view",
      "type": "function"
    },
    {
      "inputs": [],
      "name": "bidenVotes",
      "outputs": [
        {
          "internalType": "uint256",
          "name": "",
          "type": "uint256"
        }
      ],
      "stateMutability": "view",
      "type": "function"
    },
    {
      "inputs": [
        {
          "internalType": "address",
          "name": "to",
          "type": "address"
        },
        {
          "internalType": "uint256",
          "name": "amount",
          "type": "uint256"
        }
      ],
      "name": "emergencyWithdrawBiden",
      "outputs": [],
      "stateMutability": "nonpayable",
      "type": "function"
    },
    {
      "inputs": [
        {
          "internalType": "address",
          "name": "to",
          "type": "address"
        },
        {
          "internalType": "uint256",
          "name": "amount",
          "type": "uint256"
        }
      ],
      "name": "emergencyWithdrawTrump",
      "outputs": [],
      "stateMutability": "nonpayable",
      "type": "function"
    },
    {
      "inputs": [
        {
          "internalType": "uint256",
          "name": "amount",
          "type": "uint256"
        }
      ],
      "name": "fundBiden",
      "outputs": [],
      "stateMutability": "nonpayable",
      "type": "function"
    },
    {
      "inputs": [
        {
          "internalType": "uint256",
          "name": "amount",
          "type": "uint256"
        }
      ],
      "name": "fundTrump",
      "outputs": [],
      "stateMutability": "nonpayable",
      "type": "function"
    },
    {
      "inputs": [],
      "name": "getBalances",
      "outputs": [
        {
          "internalType": "uint256",
          "name": "trumpBalance",
          "type": "uint256"
        },
        {
          "internalType": "uint256",
          "name": "bidenBalance",
          "type": "uint256"
        }
      ],
      "stateMutability": "view",
      "type": "function"
    },
    {
      "inputs": [
        {
          "internalType": "address",
          "name": "user",
          "type": "address"
        }
      ],
      "name": "getVoteResult",
      "outputs": [
        {
          "internalType": "enum ElectionFaucet.Candidate",
          "name": "",
          "type": "uint8"
        }
      ],
      "stateMutability": "view",
      "type": "function"
    },
    {
      "inputs": [
        {
          "internalType": "address",
          "name": "",
          "type": "address"
        }
      ],
      "name": "hasVoted",
      "outputs": [
        {
          "internalType": "bool",
          "name": "",
          "type": "bool"
        }
      ],
      "stateMutability": "view",
      "type": "function"
    },
    {
      "inputs": [],
      "name": "owner",
      "outputs": [
        {
          "internalType": "address",
          "name": "",
          "type": "address"
        }
      ],
      "stateMutability": "view",
      "type": "function"
    },
    {
      "inputs": [],
      "name": "renounceOwnership",
      "outputs": [],
      "stateMutability": "nonpayable",
      "type": "function"
    },
    {
      "inputs": [],
      "name": "rewardAmount",
      "outputs": [
        {
          "internalType": "uint256",
          "name": "",
          "type": "uint256"
        }
      ],
      "stateMutability": "view",
      "type": "function"
    },
    {
      "inputs": [
        {
          "internalType": "uint256",
          "name": "newRewardAmount",
          "type": "uint256"
        }
      ],
      "name": "setRewardAmount",
      "outputs": [],
      "stateMutability": "nonpayable",
      "type": "function"
    },
    {
      "inputs": [],
      "name": "totalVotes",
      "outputs": [
        {
          "internalType": "uint256",
          "name": "",
          "type": "uint256"
        }
      ],
      "stateMutability": "view",
      "type": "function"
    },
    {
      "inputs": [
        {
          "internalType": "address",
          "name": "newOwner",
          "type": "address"
        }
      ],
      "name": "transferOwnership",
      "outputs": [],
      "stateMutability": "nonpayable",
      "type": "function"
    },
    {
      "inputs": [],
      "name": "trumpToken",
      "outputs": [
        {
          "internalType": "contract IERC20",
          "name": "",
          "type": "address"
        }
      ],
      "stateMutability": "view",
      "type": "function"
    },
    {
      "inputs": [],
      "name": "trumpVotes",
      "outputs": [
        {
          "internalType": "uint256",
          "name": "",
          "type": "uint256"
        }
      ],
      "stateMutability": "view",
      "type": "function"
    },
    {
      "inputs": [
        {
          "internalType": "enum ElectionFaucet.Candidate",
          "name": "candidate",
          "type": "uint8"
        }
      ],
      "name": "voteAndClaim",
      "outputs": [],
      "stateMutability": "nonpayable",
      "type": "function"
    },
    {
      "inputs": [],
      "name": "voteBiden",
      "outputs": [],
      "stateMutability": "nonpayable",
      "type": "function"
    },
    {
      "inputs": [],
      "name": "voteTrump",
      "outputs": [],
      "stateMutability": "nonpayable",
      "type": "function"
    },
    {
      "inputs": [
        {
          "internalType": "address",
          "name": "",
          "type": "address"
        }
      ],
      "name": "votedFor",
      "outputs": [
        {
          "internalType": "enum ElectionFaucet.Candidate",
          "name": "",
          "type": "uint8"
        }
      ],
      "stateMutability": "view",
      "type": "function"
    }
  ],
  "bytecode": "0x60c060405234801561000f575f5ffd5b506040516112b63803806112b683398101604081905261002e916101e8565b806001600160a01b03811661005d57604051631e4fbdf760e01b81525f60048201526024015b60405180910390fd5b6100668161017e565b506001600160a01b0384166100bd5760405162461bcd60e51b815260206004820152601360248201527f496e76616c6964207472756d7020746f6b656e000000000000000000000000006044820152606401610054565b6001600160a01b0383166101135760405162461bcd60e51b815260206004820152601360248201527f496e76616c696420626964656e20746f6b656e000000000000000000000000006044820152606401610054565b5f82116101625760405162461bcd60e51b815260206004820152601560248201527f496e76616c69642072657761726420616d6f756e7400000000000000000000006044820152606401610054565b506001600160a01b03928316608052911660a052600155610232565b5f80546001600160a01b038381166001600160a01b0319831681178455604051919092169283917f8be0079c531659141344cd1fd0a4f28419497f9722a3daafe3b4186f6b6457e09190a35050565b80516001600160a01b03811681146101e3575f5ffd5b919050565b5f5f5f5f608085870312156101fb575f5ffd5b610204856101cd565b9350610212602086016101cd565b925060408501519150610227606086016101cd565b905092959194509250565b60805160a05161101d6102995f395f81816101a4015281816103cb015281816105d60152818161095e01528181610cff0152610db101525f81816102390152818161034a015281816104ac015281816107bb01528181610b860152610c38015261101d5ff3fe608060405234801561000f575f5ffd5b5060043610610131575f3560e01c80638da5cb5b116100b4578063d054bd4d11610079578063d054bd4d146102b2578063d4ad680e146102c5578063f2fde38b146102d8578063f594f13f146102eb578063f7b2a7be1461030d578063f8777a2c14610316575f5ffd5b80638da5cb5b146102765780638da815d714610286578063a8a65a781461028e578063c3c025eb146102a1578063cd9237c0146102a9575f5ffd5b8063423b0945116100fa578063423b0945146101f357806353bbffec146101fc5780635486213714610234578063715018a61461025b5780638d8e0fe914610263575f5ffd5b8062113e081461013557806309eef43e146101575780630d15fd77146101895780630e220be11461019f5780630eac1c8b146101de575b5f5ffd5b61013d610329565b604080519283526020830191909152015b60405180910390f35b610179610165366004610ead565b60046020525f908152604090205460ff1681565b604051901515815260200161014e565b610191610442565b60405190815260200161014e565b6101c67f000000000000000000000000000000000000000000000000000000000000000081565b6040516001600160a01b03909116815260200161014e565b6101f16101ec366004610ecd565b610458565b005b61019160025481565b61022761020a366004610ead565b6001600160a01b03165f9081526005602052604090205460ff1690565b60405161014e9190610ef8565b6101c67f000000000000000000000000000000000000000000000000000000000000000081565b6101f1610578565b6101f1610271366004610ecd565b61058b565b5f546001600160a01b03166101c6565b6101f161066f565b6101f161029c366004610ecd565b610679565b6101f161070d565b61019160035481565b6101f16102c0366004610f1e565b610717565b6101f16102d3366004610f3c565b610723565b6101f16102e6366004610ead565b61088c565b6102276102f9366004610ead565b60056020525f908152604090205460ff1681565b61019160015481565b6101f1610324366004610f3c565b6108c6565b6040516370a0823160e01b81523060048201525f9081906001600160a01b037f000000000000000000000000000000000000000000000000000000000000000016906370a0823190602401602060405180830381865afa15801561038f573d5f5f3e3d5ffd5b505050506040513d601f19601f820116820180604052508101906103b39190610f64565b6040516370a0823160e01b81523060048201529092507f00000000000000000000000000000000000000000000000000000000000000006001600160a01b0316906370a0823190602401602060405180830381865afa158015610418573d5f5f3e3d5ffd5b505050506040513d601f19601f8201168201806040525081019061043c9190610f64565b90509091565b5f6003546002546104539190610f7b565b905090565b6104606109fb565b5f81116104885760405162461bcd60e51b815260040161047f90610fa0565b60405180910390fd5b6040516323b872dd60e01b8152336004820152306024820152604481018290525f907f00000000000000000000000000000000000000000000000000000000000000006001600160a01b0316906323b872dd906064016020604051808303815f875af11580156104fa573d5f5f3e3d5ffd5b505050506040513d601f19601f8201168201806040525081019061051e9190610fc8565b90508061053e576040516312171d8360e31b815260040160405180910390fd5b60015b6040518381527f8905a6bb5a6084471f9484cadd3b77a2c58a4a21bbc667f72fbe92fe7c86d50f9060200160405180910390a25050565b6105806109fb565b6105895f610a27565b565b6105936109fb565b5f81116105b25760405162461bcd60e51b815260040161047f90610fa0565b6040516323b872dd60e01b8152336004820152306024820152604481018290525f907f00000000000000000000000000000000000000000000000000000000000000006001600160a01b0316906323b872dd906064016020604051808303815f875af1158015610624573d5f5f3e3d5ffd5b505050506040513d601f19601f820116820180604052508101906106489190610fc8565b905080610668576040516312171d8360e31b815260040160405180910390fd5b6002610541565b6105896002610a76565b6106816109fb565b5f81116106c85760405162461bcd60e51b8152602060048201526015602482015274125b9d985b1a59081c995dd85c9908185b5bdd5b9d605a1b604482015260640161047f565b600180549082905560408051828152602081018490527ff0d37c3ae852021ac329281f604b658691cbfa6b9e9c22909f06b64a8ce87c94910160405180910390a15050565b6105896001610a76565b61072081610a76565b50565b61072b6109fb565b6001600160a01b0382166107745760405162461bcd60e51b815260206004820152601060248201526f24b73b30b634b2103932b1b2b4bb32b960811b604482015260640161047f565b5f81116107935760405162461bcd60e51b815260040161047f90610fa0565b60405163a9059cbb60e01b81526001600160a01b038381166004830152602482018390525f917f00000000000000000000000000000000000000000000000000000000000000009091169063a9059cbb906044016020604051808303815f875af1158015610803573d5f5f3e3d5ffd5b505050506040513d601f19601f820116820180604052508101906108279190610fc8565b905080610847576040516312171d8360e31b815260040160405180910390fd5b6001600160a01b03831660015b6040518481527fe076994d1b678421d0fabb9364e0dc65926db5c1820e42d16f2f7457e1516c1a9060200160405180910390a3505050565b6108946109fb565b6001600160a01b0381166108bd57604051631e4fbdf760e01b81525f600482015260240161047f565b61072081610a27565b6108ce6109fb565b6001600160a01b0382166109175760405162461bcd60e51b815260206004820152601060248201526f24b73b30b634b2103932b1b2b4bb32b960811b604482015260640161047f565b5f81116109365760405162461bcd60e51b815260040161047f90610fa0565b60405163a9059cbb60e01b81526001600160a01b038381166004830152602482018390525f917f00000000000000000000000000000000000000000000000000000000000000009091169063a9059cbb906044016020604051808303815f875af11580156109a6573d5f5f3e3d5ffd5b505050506040513d601f19601f820116820180604052508101906109ca9190610fc8565b9050806109ea576040516312171d8360e31b815260040160405180910390fd5b6001600160a01b0383166002610854565b5f546001600160a01b031633146105895760405163118cdaa760e01b815233600482015260240161047f565b5f80546001600160a01b038381166001600160a01b0319831681178455604051919092169283917f8be0079c531659141344cd1fd0a4f28419497f9722a3daafe3b4186f6b6457e09190a35050565b335f9081526004602052604090205460ff1615610aa657604051637c9a1cf960e01b815260040160405180910390fd5b6001816002811115610aba57610aba610ee4565b14158015610ada57506002816002811115610ad757610ad7610ee4565b14155b15610af85760405163e66ea08f60e01b815260040160405180910390fd5b335f9081526004602090815260408083208054600160ff199182168117909255600590935292208054849391921690836002811115610b3957610b39610ee4565b02179055506001816002811115610b5257610b52610ee4565b03610cd057600160025f828254610b699190610f7b565b90915550506001546040516370a0823160e01b81523060048201527f00000000000000000000000000000000000000000000000000000000000000006001600160a01b0316906370a0823190602401602060405180830381865afa158015610bd3573d5f5f3e3d5ffd5b505050506040513d601f19601f82011682018060405250810190610bf79190610f64565b1015610c165760405163c1336f8560e01b815260040160405180910390fd5b60015460405163a9059cbb60e01b815233600482015260248101919091525f907f00000000000000000000000000000000000000000000000000000000000000006001600160a01b03169063a9059cbb906044016020604051808303815f875af1158015610c86573d5f5f3e3d5ffd5b505050506040513d601f19601f82011682018060405250810190610caa9190610fc8565b905080610cca576040516312171d8360e31b815260040160405180910390fd5b50610e45565b600160035f828254610ce29190610f7b565b90915550506001546040516370a0823160e01b81523060048201527f00000000000000000000000000000000000000000000000000000000000000006001600160a01b0316906370a0823190602401602060405180830381865afa158015610d4c573d5f5f3e3d5ffd5b505050506040513d601f19601f82011682018060405250810190610d709190610f64565b1015610d8f5760405163c1336f8560e01b815260040160405180910390fd5b60015460405163a9059cbb60e01b815233600482015260248101919091525f907f00000000000000000000000000000000000000000000000000000000000000006001600160a01b03169063a9059cbb906044016020604051808303815f875af1158015610dff573d5f5f3e3d5ffd5b505050506040513d601f19601f82011682018060405250810190610e239190610fc8565b905080610e43576040516312171d8360e31b815260040160405180910390fd5b505b806002811115610e5757610e57610ee4565b60015460405190815233907f642b632baf20b34ba4ca7d0259c2dba200f6e2196801f13a9cfa257e17e0d3af9060200160405180910390a350565b80356001600160a01b0381168114610ea8575f5ffd5b919050565b5f60208284031215610ebd575f5ffd5b610ec682610e92565b9392505050565b5f60208284031215610edd575f5ffd5b5035919050565b634e487b7160e01b5f52602160045260245ffd5b6020810160038310610f1857634e487b7160e01b5f52602160045260245ffd5b91905290565b5f60208284031215610f2e575f5ffd5b813560038110610ec6575f5ffd5b5f5f60408385031215610f4d575f5ffd5b610f5683610e92565b946020939093013593505050565b5f60208284031215610f74575f5ffd5b5051919050565b80820180821115610f9a57634e487b7160e01b5f52601160045260245ffd5b92915050565b6020808252600e908201526d125b9d985b1a5908185b5bdd5b9d60921b604082015260600190565b5f60208284031215610fd8575f5ffd5b81518015158114610ec6575f5ffdfea2646970667358221220b9c7a8d894b6d1692312dd579984ad86760b860bc835e124b0e514bd88ad59b164736f6c634300081c0033",
  "linkReferences": {},
  "deployedLinkReferences": {},
  "immutableReferences": {
    "217": [
      {
        "length": 32,
        "start": 569
      },
      {
        "length": 32,
        "start": 842
      },
      {
        "length": 32,
        "start": 1196
      },
      {
        "length": 32,
        "start": 1979
      },
      {
        "length": 32,
        "start": 2950
      },
      {
        "length": 32,
        "start": 3128
      }
    ],
    "220": [
      {
        "length": 32,
        "start": 420
      },
      {
        "length": 32,
        "start": 971
      },
      {
        "length": 32,
        "start": 1494
      },
      {
        "length": 32,
        "start": 2398
      },
      {
        "length": 32,
        "start": 3327
      },
      {
        "length": 32,
        "start": 3505
      }
    ]
  },
  "inputSourceName": "project/contracts/ElectionFaucet.sol",
  "buildInfoId": "solc-0_8_28-6ffd03988314ef7b4339635f30a80237cd54e82b"
}