{
  "_format": "hh3-artifact-1",
  "contractName": "Faucet",
  "sourceName": "contracts/TokenFaucet.sol",
  "abi": [
    {
      "inputs": [
        {
          "internalType": "address",
          "name": "_tokenContract",
          "type": "address"
        },
        {
          "internalType": "uint256",
          "name": "_amountAllowed",
          "type": "uint256"
        }
      ],
      "stateMutability": "nonpayable",
      "type": "constructor"
    },
    {
      "anonymous": false,
      "inputs": [
        {
          "indexed": true,
          "internalType": "address",
          "name": "receiver",
          "type": "address"
        },
        {
          "indexed": true,
          "internalType": "uint256",
          "name": "amount",
          "type": "uint256"
        }
      ],
      "name": "SendToken",
      "type": "event"
    },
    {
      "inputs": [],
      "name": "amountAllowed",
      "outputs": [
        {
          "internalType": "uint256",
          "name": "",
          "type": "uint256"
        }
      ],
      "stateMutability": "view",
      "type": "function"
    },
    {
      "inputs": [],
      "name": "requestTokens",
      "outputs": [],
      "stateMutability": "nonpayable",
      "type": "function"
    },
    {
      "inputs": [
        {
          "internalType": "address",
          "name": "",
          "type": "address"
        }
      ],
      "name": "requestedAddress",
      "outputs": [
        {
          "internalType": "bool",
          "name": "",
          "type": "bool"
        }
      ],
      "stateMutability": "view",
      "type": "function"
    },
    {
      "inputs": [],
      "name": "tokenContract",
      "outputs": [
        {
          "internalType": "address",
          "name": "",
          "type": "address"
        }
      ],
      "stateMutability": "view",
      "type": "function"
    }
  ],
  "bytecode": "0x6080604052348015600e575f5ffd5b5060405161040e38038061040e833981016040819052602b916052565b600180546001600160a01b0319166001600160a01b0393909316929092179091555f556087565b5f5f604083850312156062575f5ffd5b82516001600160a01b03811681146077575f5ffd5b6020939093015192949293505050565b61037a806100945f395ff3fe608060405234801561000f575f5ffd5b506004361061004a575f3560e01c8063359cf2b71461004e57806355a373d6146100585780635e33dba9146100885780639ad2cd14146100ba575b5f5ffd5b6100566100d0565b005b60015461006b906001600160a01b031681565b6040516001600160a01b0390911681526020015b60405180910390f35b6100aa6100963660046102e1565b60026020525f908152604090205460ff1681565b604051901515815260200161007f565b6100c25f5481565b60405190815260200161007f565b335f9081526002602052604090205460ff16156101345760405162461bcd60e51b815260206004820152601d60248201527f43616e27742072657175657374206d756c7469706c652074696d65732100000060448201526064015b60405180910390fd5b6001545f546040516370a0823160e01b81523060048201526001600160a01b039092169182906370a0823190602401602060405180830381865afa15801561017e573d5f5f3e3d5ffd5b505050506040513d601f19601f820116820180604052508101906101a2919061030e565b10156101e05760405162461bcd60e51b815260206004820152600d60248201526c46617563657420656d7074792160981b604482015260640161012b565b5f805460405163a9059cbb60e01b815233600482015260248101919091526001600160a01b0383169063a9059cbb906044016020604051808303815f875af115801561022e573d5f5f3e3d5ffd5b505050506040513d601f19601f820116820180604052508101906102529190610325565b9050806102995760405162461bcd60e51b8152602060048201526015602482015274151bdad95b881d1c985b9cd9995c8819985a5b1959605a1b604482015260640161012b565b335f81815260026020526040808220805460ff19166001179055815490519092917f916800025d85907d1e91e112659a8e7e77a17ea4de231b05f15bb381d3bfde6191a35050565b5f602082840312156102f1575f5ffd5b81356001600160a01b0381168114610307575f5ffd5b9392505050565b5f6020828403121561031e575f5ffd5b5051919050565b5f60208284031215610335575f5ffd5b81518015158114610307575f5ffdfea2646970667358221220f0c0e709faba2bf977bc33b0b6239a17312f2bf4bfd1feb8ef0c48d04d86b9b464736f6c634300081c0033",
  "linkReferences": {},
  "deployedLinkReferences": {},
  "immutableReferences": {},
  "inputSourceName": "project/contracts/TokenFaucet.sol",
  "buildInfoId": "solc-0_8_28-59b206646b69d40360f0163aa1062d1ff07429b6"
}